{
  "_format": "hh-sol-artifact-1",
  "contractName": "PhishToken",
  "sourceName": "contracts/nft.sol",
  "abi": [
    {
      "inputs": [
        {
          "internalType": "string",
          "name": "name",
          "type": "string"
        },
        {
          "internalType": "string",
          "name": "symbol",
          "type": "string"
        },
        {
          "internalType": "string",
          "name": "baseTokenURI",
          "type": "string"
        }
      ],
      "stateMutability": "nonpayable",
      "type": "constructor"
    },
    {
      "anonymous": false,
      "inputs": [
        {
          "indexed": true,
          "internalType": "address",
          "name": "owner",
          "type": "address"
        },
        {
          "indexed": true,
          "internalType": "address",
          "name": "approved",
          "type": "address"
        },
        {
          "indexed": true,
          "internalType": "uint256",
          "name": "tokenId",
          "type": "uint256"
        }
      ],
      "name": "Approval",
      "type": "event"
    },
    {
      "anonymous": false,
      "inputs": [
        {
          "indexed": true,
          "internalType": "address",
          "name": "owner",
          "type": "address"
        },
        {
          "indexed": true,
          "internalType": "address",
          "name": "operator",
          "type": "address"
        },
        {
          "indexed": false,
          "internalType": "bool",
          "name": "approved",
          "type": "bool"
        }
      ],
      "name": "ApprovalForAll",
      "type": "event"
    },
    {
      "anonymous": false,
      "inputs": [
        {
          "indexed": false,
          "internalType": "address",
          "name": "account",
          "type": "address"
        }
      ],
      "name": "Paused",
      "type": "event"
    },
    {
      "anonymous": false,
      "inputs": [
        {
          "indexed": false,
          "internalType": "address",
          "name": "sender",
          "type": "address"
        },
        {
          "indexed": false,
          "internalType": "uint128",
          "name": "root",
          "type": "uint128"
        }
      ],
      "name": "RegisteredRoot",
      "type": "event"
    },
    {
      "anonymous": false,
      "inputs": [
        {
          "indexed": true,
          "internalType": "bytes32",
          "name": "role",
          "type": "bytes32"
        },
        {
          "indexed": true,
          "internalType": "bytes32",
          "name": "previousAdminRole",
          "type": "bytes32"
        },
        {
          "indexed": true,
          "internalType": "bytes32",
          "name": "newAdminRole",
          "type": "bytes32"
        }
      ],
      "name": "RoleAdminChanged",
      "type": "event"
    },
    {
      "anonymous": false,
      "inputs": [
        {
          "indexed": true,
          "internalType": "bytes32",
          "name": "role",
          "type": "bytes32"
        },
        {
          "indexed": true,
          "internalType": "address",
          "name": "account",
          "type": "address"
        },
        {
          "indexed": true,
          "internalType": "address",
          "name": "sender",
          "type": "address"
        }
      ],
      "name": "RoleGranted",
      "type": "event"
    },
    {
      "anonymous": false,
      "inputs": [
        {
          "indexed": true,
          "internalType": "bytes32",
          "name": "role",
          "type": "bytes32"
        },
        {
          "indexed": true,
          "internalType": "address",
          "name": "account",
          "type": "address"
        },
        {
          "indexed": true,
          "internalType": "address",
          "name": "sender",
          "type": "address"
        }
      ],
      "name": "RoleRevoked",
      "type": "event"
    },
    {
      "anonymous": false,
      "inputs": [
        {
          "indexed": true,
          "internalType": "address",
          "name": "from",
          "type": "address"
        },
        {
          "indexed": true,
          "internalType": "address",
          "name": "to",
          "type": "address"
        },
        {
          "indexed": true,
          "internalType": "uint256",
          "name": "tokenId",
          "type": "uint256"
        }
      ],
      "name": "Transfer",
      "type": "event"
    },
    {
      "anonymous": false,
      "inputs": [
        {
          "indexed": false,
          "internalType": "address",
          "name": "account",
          "type": "address"
        }
      ],
      "name": "Unpaused",
      "type": "event"
    },
    {
      "inputs": [],
      "name": "DEFAULT_ADMIN_ROLE",
      "outputs": [
        {
          "internalType": "bytes32",
          "name": "",
          "type": "bytes32"
        }
      ],
      "stateMutability": "view",
      "type": "function"
    },
    {
      "inputs": [],
      "name": "MINTER_ROLE",
      "outputs": [
        {
          "internalType": "bytes32",
          "name": "",
          "type": "bytes32"
        }
      ],
      "stateMutability": "view",
      "type": "function"
    },
    {
      "inputs": [],
      "name": "PAUSER_ROLE",
      "outputs": [
        {
          "internalType": "bytes32",
          "name": "",
          "type": "bytes32"
        }
      ],
      "stateMutability": "view",
      "type": "function"
    },
    {
      "inputs": [
        {
          "internalType": "address",
          "name": "to",
          "type": "address"
        },
        {
          "internalType": "uint256",
          "name": "tokenId",
          "type": "uint256"
        }
      ],
      "name": "approve",
      "outputs": [],
      "stateMutability": "nonpayable",
      "type": "function"
    },
    {
      "inputs": [
        {
          "internalType": "address",
          "name": "owner",
          "type": "address"
        }
      ],
      "name": "balanceOf",
      "outputs": [
        {
          "internalType": "uint256",
          "name": "",
          "type": "uint256"
        }
      ],
      "stateMutability": "view",
      "type": "function"
    },
    {
      "inputs": [
        {
          "internalType": "uint256",
          "name": "tokenId",
          "type": "uint256"
        }
      ],
      "name": "burn",
      "outputs": [],
      "stateMutability": "nonpayable",
      "type": "function"
    },
    {
      "inputs": [
        {
          "internalType": "uint256",
          "name": "tokenId",
          "type": "uint256"
        }
      ],
      "name": "getApproved",
      "outputs": [
        {
          "internalType": "address",
          "name": "",
          "type": "address"
        }
      ],
      "stateMutability": "view",
      "type": "function"
    },
    {
      "inputs": [
        {
          "internalType": "bytes32",
          "name": "role",
          "type": "bytes32"
        }
      ],
      "name": "getRoleAdmin",
      "outputs": [
        {
          "internalType": "bytes32",
          "name": "",
          "type": "bytes32"
        }
      ],
      "stateMutability": "view",
      "type": "function"
    },
    {
      "inputs": [
        {
          "internalType": "bytes32",
          "name": "role",
          "type": "bytes32"
        },
        {
          "internalType": "uint256",
          "name": "index",
          "type": "uint256"
        }
      ],
      "name": "getRoleMember",
      "outputs": [
        {
          "internalType": "address",
          "name": "",
          "type": "address"
        }
      ],
      "stateMutability": "view",
      "type": "function"
    },
    {
      "inputs": [
        {
          "internalType": "bytes32",
          "name": "role",
          "type": "bytes32"
        }
      ],
      "name": "getRoleMemberCount",
      "outputs": [
        {
          "internalType": "uint256",
          "name": "",
          "type": "uint256"
        }
      ],
      "stateMutability": "view",
      "type": "function"
    },
    {
      "inputs": [
        {
          "internalType": "bytes32",
          "name": "role",
          "type": "bytes32"
        },
        {
          "internalType": "address",
          "name": "account",
          "type": "address"
        }
      ],
      "name": "grantRole",
      "outputs": [],
      "stateMutability": "nonpayable",
      "type": "function"
    },
    {
      "inputs": [
        {
          "internalType": "bytes32",
          "name": "role",
          "type": "bytes32"
        },
        {
          "internalType": "address",
          "name": "account",
          "type": "address"
        }
      ],
      "name": "hasRole",
      "outputs": [
        {
          "internalType": "bool",
          "name": "",
          "type": "bool"
        }
      ],
      "stateMutability": "view",
      "type": "function"
    },
    {
      "inputs": [
        {
          "internalType": "address",
          "name": "owner",
          "type": "address"
        },
        {
          "internalType": "address",
          "name": "operator",
          "type": "address"
        }
      ],
      "name": "isApprovedForAll",
      "outputs": [
        {
          "internalType": "bool",
          "name": "",
          "type": "bool"
        }
      ],
      "stateMutability": "view",
      "type": "function"
    },
    {
      "inputs": [
        {
          "internalType": "address",
          "name": "to",
          "type": "address"
        }
      ],
      "name": "mint",
      "outputs": [],
      "stateMutability": "nonpayable",
      "type": "function"
    },
    {
      "inputs": [
        {
          "internalType": "bytes[]",
          "name": "data",
          "type": "bytes[]"
        }
      ],
      "name": "multicall",
      "outputs": [
        {
          "internalType": "bytes[]",
          "name": "results",
          "type": "bytes[]"
        }
      ],
      "stateMutability": "nonpayable",
      "type": "function"
    },
    {
      "inputs": [],
      "name": "name",
      "outputs": [
        {
          "internalType": "string",
          "name": "",
          "type": "string"
        }
      ],
      "stateMutability": "view",
      "type": "function"
    },
    {
      "inputs": [
        {
          "internalType": "uint256",
          "name": "tokenId",
          "type": "uint256"
        }
      ],
      "name": "ownerOf",
      "outputs": [
        {
          "internalType": "address",
          "name": "",
          "type": "address"
        }
      ],
      "stateMutability": "view",
      "type": "function"
    },
    {
      "inputs": [],
      "name": "pause",
      "outputs": [],
      "stateMutability": "nonpayable",
      "type": "function"
    },
    {
      "inputs": [],
      "name": "paused",
      "outputs": [
        {
          "internalType": "bool",
          "name": "",
          "type": "bool"
        }
      ],
      "stateMutability": "view",
      "type": "function"
    },
    {
      "inputs": [
        {
          "internalType": "uint128",
          "name": "root",
          "type": "uint128"
        }
      ],
      "name": "registerRoot",
      "outputs": [],
      "stateMutability": "nonpayable",
      "type": "function"
    },
    {
      "inputs": [
        {
          "internalType": "bytes32",
          "name": "role",
          "type": "bytes32"
        },
        {
          "internalType": "address",
          "name": "account",
          "type": "address"
        }
      ],
      "name": "renounceRole",
      "outputs": [],
      "stateMutability": "nonpayable",
      "type": "function"
    },
    {
      "inputs": [
        {
          "internalType": "uint128",
          "name": "root",
          "type": "uint128"
        },
        {
          "internalType": "address",
          "name": "to",
          "type": "address"
        }
      ],
      "name": "requestToken",
      "outputs": [
        {
          "internalType": "uint256",
          "name": "",
          "type": "uint256"
        }
      ],
      "stateMutability": "nonpayable",
      "type": "function"
    },
    {
      "inputs": [
        {
          "internalType": "bytes32",
          "name": "role",
          "type": "bytes32"
        },
        {
          "internalType": "address",
          "name": "account",
          "type": "address"
        }
      ],
      "name": "revokeRole",
      "outputs": [],
      "stateMutability": "nonpayable",
      "type": "function"
    },
    {
      "inputs": [
        {
          "internalType": "address",
          "name": "from",
          "type": "address"
        },
        {
          "internalType": "address",
          "name": "to",
          "type": "address"
        },
        {
          "internalType": "uint256",
          "name": "tokenId",
          "type": "uint256"
        }
      ],
      "name": "safeTransferFrom",
      "outputs": [],
      "stateMutability": "nonpayable",
      "type": "function"
    },
    {
      "inputs": [
        {
          "internalType": "address",
          "name": "from",
          "type": "address"
        },
        {
          "internalType": "address",
          "name": "to",
          "type": "address"
        },
        {
          "internalType": "uint256",
          "name": "tokenId",
          "type": "uint256"
        },
        {
          "internalType": "bytes",
          "name": "_data",
          "type": "bytes"
        }
      ],
      "name": "safeTransferFrom",
      "outputs": [],
      "stateMutability": "nonpayable",
      "type": "function"
    },
    {
      "inputs": [
        {
          "internalType": "address",
          "name": "operator",
          "type": "address"
        },
        {
          "internalType": "bool",
          "name": "approved",
          "type": "bool"
        }
      ],
      "name": "setApprovalForAll",
      "outputs": [],
      "stateMutability": "nonpayable",
      "type": "function"
    },
    {
      "inputs": [
        {
          "internalType": "bytes4",
          "name": "interfaceId",
          "type": "bytes4"
        }
      ],
      "name": "supportsInterface",
      "outputs": [
        {
          "internalType": "bool",
          "name": "",
          "type": "bool"
        }
      ],
      "stateMutability": "view",
      "type": "function"
    },
    {
      "inputs": [],
      "name": "symbol",
      "outputs": [
        {
          "internalType": "string",
          "name": "",
          "type": "string"
        }
      ],
      "stateMutability": "view",
      "type": "function"
    },
    {
      "inputs": [
        {
          "internalType": "uint256",
          "name": "index",
          "type": "uint256"
        }
      ],
      "name": "tokenByIndex",
      "outputs": [
        {
          "internalType": "uint256",
          "name": "",
          "type": "uint256"
        }
      ],
      "stateMutability": "view",
      "type": "function"
    },
    {
      "inputs": [
        {
          "internalType": "address",
          "name": "owner",
          "type": "address"
        },
        {
          "internalType": "uint256",
          "name": "index",
          "type": "uint256"
        }
      ],
      "name": "tokenOfOwnerByIndex",
      "outputs": [
        {
          "internalType": "uint256",
          "name": "",
          "type": "uint256"
        }
      ],
      "stateMutability": "view",
      "type": "function"
    },
    {
      "inputs": [
        {
          "internalType": "uint256",
          "name": "tokenId",
          "type": "uint256"
        }
      ],
      "name": "tokenURI",
      "outputs": [
        {
          "internalType": "string",
          "name": "",
          "type": "string"
        }
      ],
      "stateMutability": "view",
      "type": "function"
    },
    {
      "inputs": [],
      "name": "totalSupply",
      "outputs": [
        {
          "internalType": "uint256",
          "name": "",
          "type": "uint256"
        }
      ],
      "stateMutability": "view",
      "type": "function"
    },
    {
      "inputs": [
        {
          "internalType": "address",
          "name": "from",
          "type": "address"
        },
        {
          "internalType": "address",
          "name": "to",
          "type": "address"
        },
        {
          "internalType": "uint256",
          "name": "tokenId",
          "type": "uint256"
        }
      ],
      "name": "transferFrom",
      "outputs": [],
      "stateMutability": "nonpayable",
      "type": "function"
    },
    {
      "inputs": [],
      "name": "unpause",
      "outputs": [],
      "stateMutability": "nonpayable",
      "type": "function"
    }
  ],
  "bytecode": "0x60806040523480156200001157600080fd5b5060405162003415380380620034158339810160408190526200003491620003cd565b828282828281600290805190602001906200005192919062000274565b5080516200006790600390602084019062000274565b5050600c805460ff191690555080516200008990600e90602084019062000274565b50620000976000336200010f565b620000c37f9f2df0fed2c77648de5860a4cc508cd0818c85b8b8a1ab4ceeef8d981c8956a6336200010f565b620000ef7f65d7a28e3265b37a6474929f336521b332c1681b933f6cb9f3376673440d862a336200010f565b5050600f80546001600160801b031916600117905550620004ad92505050565b6200012682826200015260201b620012661760201c565b60008281526001602090815260409091206200014d9183906200127462000162821b17901c565b505050565b6200015e828262000182565b5050565b600062000179836001600160a01b03841662000222565b90505b92915050565b6000828152602081815260408083206001600160a01b038516845290915290205460ff166200015e576000828152602081815260408083206001600160a01b03851684529091529020805460ff19166001179055620001de3390565b6001600160a01b0316816001600160a01b0316837f2f8788117e7eff1d82e926ec794901d17c78024a50270940304540a733656f0d60405160405180910390a45050565b60008181526001830160205260408120546200026b575081546001818101845560008481526020808220909301849055845484825282860190935260409020919091556200017c565b5060006200017c565b82805462000282906200045a565b90600052602060002090601f016020900481019282620002a65760008555620002f1565b82601f10620002c157805160ff1916838001178555620002f1565b82800160010185558215620002f1579182015b82811115620002f1578251825591602001919060010190620002d4565b50620002ff92915062000303565b5090565b5b80821115620002ff576000815560010162000304565b600082601f8301126200032b578081fd5b81516001600160401b038082111562000348576200034862000497565b604051601f8301601f19908116603f0116810190828211818310171562000373576200037362000497565b816040528381526020925086838588010111156200038f578485fd5b8491505b83821015620003b2578582018301518183018401529082019062000393565b83821115620003c357848385830101525b9695505050505050565b600080600060608486031215620003e2578283fd5b83516001600160401b0380821115620003f9578485fd5b62000407878388016200031a565b945060208601519150808211156200041d578384fd5b6200042b878388016200031a565b9350604086015191508082111562000441578283fd5b5062000450868287016200031a565b9150509250925092565b600181811c908216806200046f57607f821691505b602082108114156200049157634e487b7160e01b600052602260045260246000fd5b50919050565b634e487b7160e01b600052604160045260246000fd5b612f5880620004bd6000396000f3fe608060405234801561001057600080fd5b50600436106102265760003560e01c80636a6278421161012a578063a22cb465116100bd578063ca15c8731161008c578063d547741f11610071578063d547741f146104c9578063e63ab1e9146104dc578063e985e9c51461050357600080fd5b8063ca15c8731461048f578063d5391393146104a257600080fd5b8063a22cb46514610436578063ac9650d814610449578063b88d4fde14610469578063c87b56dd1461047c57600080fd5b80639010d07c116100f95780639010d07c146103dc57806391d14854146103ef57806395d89b4114610426578063a217fddf1461042e57600080fd5b80636a6278421461039b57806370a08231146103ae57806379aeae04146103c15780638456cb59146103d457600080fd5b80632f745c59116101bd57806342842e0e1161018c5780634f6ccce7116101715780634f6ccce71461036a5780635c975abb1461037d5780636352211e1461038857600080fd5b806342842e0e1461034457806342966c681461035757600080fd5b80632f745c591461030357806333e7402e1461031657806336568abe146103295780633f4ba83a1461033c57600080fd5b806318160ddd116101f957806318160ddd146102a857806323b872dd146102ba578063248a9ca3146102cd5780632f2ff15d146102f057600080fd5b806301ffc9a71461022b57806306fdde0314610253578063081812fc14610268578063095ea7b314610293575b600080fd5b61023e610239366004612b1b565b61053f565b60405190151581526020015b60405180910390f35b61025b610550565b60405161024a9190612d13565b61027b610276366004612ac0565b6105e2565b6040516001600160a01b03909116815260200161024a565b6102a66102a1366004612a27565b61067c565b005b600a545b60405190815260200161024a565b6102a66102c83660046128dd565b6107ae565b6102ac6102db366004612ac0565b60009081526020819052604090206001015490565b6102a66102fe366004612ad8565b610836565b6102ac610311366004612a27565b610858565b6102a6610324366004612b53565b610900565b6102a6610337366004612ad8565b61098c565b6102a66109ae565b6102a66103523660046128dd565b610a56565b6102a6610365366004612ac0565b610a71565b6102ac610378366004612ac0565b610af8565b600c5460ff1661023e565b61027b610396366004612ac0565b610baa565b6102a66103a9366004612891565b610c35565b6102ac6103bc366004612891565b610cf1565b6102ac6103cf366004612b6d565b610d8b565b6102a6610e20565b61027b6103ea366004612afa565b610ec4565b61023e6103fd366004612ad8565b6000918252602082815260408084206001600160a01b0393909316845291905290205460ff1690565b61025b610edc565b6102ac600081565b6102a66104443660046129ed565b610eeb565b61045c610457366004612a50565b610fb0565b60405161024a9190612cb2565b6102a6610477366004612918565b6110cf565b61025b61048a366004612ac0565b61115d565b6102ac61049d366004612ac0565b611245565b6102ac7f9f2df0fed2c77648de5860a4cc508cd0818c85b8b8a1ab4ceeef8d981c8956a681565b6102a66104d7366004612ad8565b61125c565b6102ac7f65d7a28e3265b37a6474929f336521b332c1681b933f6cb9f3376673440d862a81565b61023e6105113660046128ab565b6001600160a01b03918216600090815260076020908152604080832093909416825291909152205460ff1690565b600061054a82611289565b92915050565b60606002805461055f90612e39565b80601f016020809104026020016040519081016040528092919081815260200182805461058b90612e39565b80156105d85780601f106105ad576101008083540402835291602001916105d8565b820191906000526020600020905b8154815290600101906020018083116105bb57829003601f168201915b5050505050905090565b6000818152600460205260408120546001600160a01b03166106605760405162461bcd60e51b815260206004820152602c60248201527f4552433732313a20617070726f76656420717565727920666f72206e6f6e657860448201526b34b9ba32b73a103a37b5b2b760a11b60648201526084015b60405180910390fd5b506000908152600660205260409020546001600160a01b031690565b600061068782610baa565b9050806001600160a01b0316836001600160a01b031614156107115760405162461bcd60e51b815260206004820152602160248201527f4552433732313a20617070726f76616c20746f2063757272656e74206f776e6560448201527f72000000000000000000000000000000000000000000000000000000000000006064820152608401610657565b336001600160a01b038216148061072d575061072d8133610511565b61079f5760405162461bcd60e51b815260206004820152603860248201527f4552433732313a20617070726f76652063616c6c6572206973206e6f74206f7760448201527f6e6572206e6f7220617070726f76656420666f7220616c6c00000000000000006064820152608401610657565b6107a983836112c7565b505050565b6107b9335b82611335565b61082b5760405162461bcd60e51b815260206004820152603160248201527f4552433732313a207472616e736665722063616c6c6572206973206e6f74206f60448201527f776e6572206e6f7220617070726f7665640000000000000000000000000000006064820152608401610657565b6107a983838361142c565b6108408282611604565b60008281526001602052604090206107a99082611274565b600061086383610cf1565b82106108d75760405162461bcd60e51b815260206004820152602b60248201527f455243373231456e756d657261626c653a206f776e657220696e646578206f7560448201527f74206f6620626f756e64730000000000000000000000000000000000000000006064820152608401610657565b506001600160a01b03919091166000908152600860209081526040808320938352929052205490565b6001600160801b038116600081815260116020908152604080832080546001600160a01b03191633908117909155808452601083529281902080546fffffffffffffffffffffffffffffffff1916851790558051928352908201929092527f42c7c426cc3dc85f47c9a922e5f57f48672c193dce800dde347e8192eb086b04910160405180910390a150565b610996828261162a565b60008281526001602052604090206107a990826116b2565b6109d87f65d7a28e3265b37a6474929f336521b332c1681b933f6cb9f3376673440d862a336103fd565b610a4c576040805162461bcd60e51b81526020600482015260248101919091527f4552433732315072657365744d696e7465725061757365724175746f49643a2060448201527f6d75737420686176652070617573657220726f6c6520746f20756e70617573656064820152608401610657565b610a546116c7565b565b6107a9838383604051806020016040528060008152506110cf565b610a7a336107b3565b610aec5760405162461bcd60e51b815260206004820152603060248201527f4552433732314275726e61626c653a2063616c6c6572206973206e6f74206f7760448201527f6e6572206e6f7220617070726f766564000000000000000000000000000000006064820152608401610657565b610af581611763565b50565b6000610b03600a5490565b8210610b775760405162461bcd60e51b815260206004820152602c60248201527f455243373231456e756d657261626c653a20676c6f62616c20696e646578206f60448201527f7574206f6620626f756e647300000000000000000000000000000000000000006064820152608401610657565b600a8281548110610b9857634e487b7160e01b600052603260045260246000fd5b90600052602060002001549050919050565b6000818152600460205260408120546001600160a01b03168061054a5760405162461bcd60e51b815260206004820152602960248201527f4552433732313a206f776e657220717565727920666f72206e6f6e657869737460448201527f656e7420746f6b656e00000000000000000000000000000000000000000000006064820152608401610657565b610c5f7f9f2df0fed2c77648de5860a4cc508cd0818c85b8b8a1ab4ceeef8d981c8956a6336103fd565b610cd15760405162461bcd60e51b815260206004820152603d60248201527f4552433732315072657365744d696e7465725061757365724175746f49643a2060448201527f6d7573742068617665206d696e74657220726f6c6520746f206d696e740000006064820152608401610657565b610ce381610cde600d5490565b61180a565b610af5600d80546001019055565b60006001600160a01b038216610d6f5760405162461bcd60e51b815260206004820152602a60248201527f4552433732313a2062616c616e636520717565727920666f7220746865207a6560448201527f726f2061646472657373000000000000000000000000000000000000000000006064820152608401610657565b506001600160a01b031660009081526005602052604090205490565b336000908152601060205260408120546001600160801b03848116911614610db257600080fd5b600f80546001600160801b0316608085901b6fffffffffffffffffffffffffffffffff1916811791600191600090610deb908490612d72565b92506101000a8154816001600160801b0302191690836001600160801b03160217905550610e198382611958565b9392505050565b610e4a7f65d7a28e3265b37a6474929f336521b332c1681b933f6cb9f3376673440d862a336103fd565b610ebc5760405162461bcd60e51b815260206004820152603e60248201527f4552433732315072657365744d696e7465725061757365724175746f49643a2060448201527f6d75737420686176652070617573657220726f6c6520746f20706175736500006064820152608401610657565b610a54611972565b6000828152600160205260408120610e1990836119fa565b60606003805461055f90612e39565b6001600160a01b038216331415610f445760405162461bcd60e51b815260206004820152601960248201527f4552433732313a20617070726f766520746f2063616c6c6572000000000000006044820152606401610657565b3360008181526007602090815260408083206001600160a01b03871680855290835292819020805460ff191686151590811790915590519081529192917f17307eab39ab6107e8899845ad3d59bd9653f200f220920489ca2b5937696c31910160405180910390a35050565b60608167ffffffffffffffff811115610fd957634e487b7160e01b600052604160045260246000fd5b60405190808252806020026020018201604052801561100c57816020015b6060815260200190600190039081610ff75790505b50905060005b828110156110c85761108a3085858481811061103e57634e487b7160e01b600052603260045260246000fd5b90506020028101906110509190612d26565b8080601f016020809104026020016040519081016040528093929190818152602001838380828437600092019190915250611a0692505050565b8282815181106110aa57634e487b7160e01b600052603260045260246000fd5b602002602001018190525080806110c090612e74565b915050611012565b5092915050565b6110d93383611335565b61114b5760405162461bcd60e51b815260206004820152603160248201527f4552433732313a207472616e736665722063616c6c6572206973206e6f74206f60448201527f776e6572206e6f7220617070726f7665640000000000000000000000000000006064820152608401610657565b61115784848484611a2b565b50505050565b6000818152600460205260409020546060906001600160a01b03166111ea5760405162461bcd60e51b815260206004820152602f60248201527f4552433732314d657461646174613a2055524920717565727920666f72206e6f60448201527f6e6578697374656e7420746f6b656e00000000000000000000000000000000006064820152608401610657565b60006111f4611aa9565b905060008151116112145760405180602001604052806000815250610e19565b8061121e84611ab8565b60405160200161122f929190612bd0565b6040516020818303038152906040529392505050565b600081815260016020526040812061054a90611bd2565b6109968282611bdc565b6112708282611c02565b5050565b6000610e19836001600160a01b038416611ca0565b60006001600160e01b031982167f780e9d6300000000000000000000000000000000000000000000000000000000148061054a575061054a82611cef565b600081815260066020526040902080546001600160a01b0319166001600160a01b03841690811790915581906112fc82610baa565b6001600160a01b03167f8c5be1e5ebec7d5bd14f71427d1e84f3dd0314c0f7b2291e5b200ac8c7c3b92560405160405180910390a45050565b6000818152600460205260408120546001600160a01b03166113ae5760405162461bcd60e51b815260206004820152602c60248201527f4552433732313a206f70657261746f7220717565727920666f72206e6f6e657860448201526b34b9ba32b73a103a37b5b2b760a11b6064820152608401610657565b60006113b983610baa565b9050806001600160a01b0316846001600160a01b031614806113f45750836001600160a01b03166113e9846105e2565b6001600160a01b0316145b8061142457506001600160a01b0380821660009081526007602090815260408083209388168352929052205460ff165b949350505050565b826001600160a01b031661143f82610baa565b6001600160a01b0316146114bb5760405162461bcd60e51b815260206004820152602960248201527f4552433732313a207472616e73666572206f6620746f6b656e2074686174206960448201527f73206e6f74206f776e00000000000000000000000000000000000000000000006064820152608401610657565b6001600160a01b0382166115365760405162461bcd60e51b8152602060048201526024808201527f4552433732313a207472616e7366657220746f20746865207a65726f2061646460448201527f72657373000000000000000000000000000000000000000000000000000000006064820152608401610657565b611541838383611d61565b61154c6000826112c7565b6001600160a01b0383166000908152600560205260408120805460019290611575908490612ddf565b90915550506001600160a01b03821660009081526005602052604081208054600192906115a3908490612d94565b909155505060008181526004602052604080822080546001600160a01b0319166001600160a01b0386811691821790925591518493918716917fddf252ad1be2c89b69c2b068fc378daa952ba7f163c4a11628f55a4df523b3ef91a4505050565b6000828152602081905260409020600101546116208133611d6c565b6107a98383611c02565b6001600160a01b03811633146116a85760405162461bcd60e51b815260206004820152602f60248201527f416363657373436f6e74726f6c3a2063616e206f6e6c792072656e6f756e636560448201527f20726f6c657320666f722073656c6600000000000000000000000000000000006064820152608401610657565b6112708282611dea565b6000610e19836001600160a01b038416611e69565b600c5460ff166117195760405162461bcd60e51b815260206004820152601460248201527f5061757361626c653a206e6f74207061757365640000000000000000000000006044820152606401610657565b600c805460ff191690557f5db9ee0a495bf2e6ff9c91a7834c1ba4fdd244a5e8aa4e537bd38aeae4b073aa335b6040516001600160a01b03909116815260200160405180910390a1565b600061176e82610baa565b905061177c81600084611d61565b6117876000836112c7565b6001600160a01b03811660009081526005602052604081208054600192906117b0908490612ddf565b909155505060008281526004602052604080822080546001600160a01b0319169055518391906001600160a01b038416907fddf252ad1be2c89b69c2b068fc378daa952ba7f163c4a11628f55a4df523b3ef908390a45050565b6001600160a01b0382166118605760405162461bcd60e51b815260206004820181905260248201527f4552433732313a206d696e7420746f20746865207a65726f20616464726573736044820152606401610657565b6000818152600460205260409020546001600160a01b0316156118c55760405162461bcd60e51b815260206004820152601c60248201527f4552433732313a20746f6b656e20616c7265616479206d696e746564000000006044820152606401610657565b6118d160008383611d61565b6001600160a01b03821660009081526005602052604081208054600192906118fa908490612d94565b909155505060008181526004602052604080822080546001600160a01b0319166001600160a01b03861690811790915590518392907fddf252ad1be2c89b69c2b068fc378daa952ba7f163c4a11628f55a4df523b3ef908290a45050565b611270828260405180602001604052806000815250611f86565b600c5460ff16156119c55760405162461bcd60e51b815260206004820152601060248201527f5061757361626c653a20706175736564000000000000000000000000000000006044820152606401610657565b600c805460ff191660011790557f62e78cea01bee320cd4e420270b5ea74000d11b0c9f74754ebdbfc544b05a2586117463390565b6000610e198383612004565b6060610e198383604051806060016040528060278152602001612efc6027913961203c565b611a3684848461142c565b611a4284848484612127565b6111575760405162461bcd60e51b815260206004820152603260248201527f4552433732313a207472616e7366657220746f206e6f6e20455243373231526560448201527131b2b4bb32b91034b6b83632b6b2b73a32b960711b6064820152608401610657565b6060600e805461055f90612e39565b606081611adc5750506040805180820190915260018152600360fc1b602082015290565b8160005b8115611b065780611af081612e74565b9150611aff9050600a83612dac565b9150611ae0565b60008167ffffffffffffffff811115611b2f57634e487b7160e01b600052604160045260246000fd5b6040519080825280601f01601f191660200182016040528015611b59576020820181803683370190505b5090505b841561142457611b6e600183612ddf565b9150611b7b600a86612e8f565b611b86906030612d94565b60f81b818381518110611ba957634e487b7160e01b600052603260045260246000fd5b60200101906001600160f81b031916908160001a905350611bcb600a86612dac565b9450611b5d565b600061054a825490565b600082815260208190526040902060010154611bf88133611d6c565b6107a98383611dea565b6000828152602081815260408083206001600160a01b038516845290915290205460ff16611270576000828152602081815260408083206001600160a01b03851684529091529020805460ff19166001179055611c5c3390565b6001600160a01b0316816001600160a01b0316837f2f8788117e7eff1d82e926ec794901d17c78024a50270940304540a733656f0d60405160405180910390a45050565b6000818152600183016020526040812054611ce75750815460018181018455600084815260208082209093018490558454848252828601909352604090209190915561054a565b50600061054a565b60006001600160e01b031982167f80ac58cd000000000000000000000000000000000000000000000000000000001480611d5257506001600160e01b031982167f5b5e139f00000000000000000000000000000000000000000000000000000000145b8061054a575061054a8261227f565b6107a98383836122bd565b6000828152602081815260408083206001600160a01b038516845290915290205460ff1661127057611da8816001600160a01b03166014612341565b611db3836020612341565b604051602001611dc4929190612bff565b60408051601f198184030181529082905262461bcd60e51b825261065791600401612d13565b6000828152602081815260408083206001600160a01b038516845290915290205460ff1615611270576000828152602081815260408083206001600160a01b0385168085529252808320805460ff1916905551339285917ff6391f5c32d9c69d2a47ea670b442974b53935d1edc7fd64eb21e047a839171b9190a45050565b60008181526001830160205260408120548015611f7c576000611e8d600183612ddf565b8554909150600090611ea190600190612ddf565b9050818114611f22576000866000018281548110611ecf57634e487b7160e01b600052603260045260246000fd5b9060005260206000200154905080876000018481548110611f0057634e487b7160e01b600052603260045260246000fd5b6000918252602080832090910192909255918252600188019052604090208390555b8554869080611f4157634e487b7160e01b600052603160045260246000fd5b60019003818190600052602060002001600090559055856001016000868152602001908152602001600020600090556001935050505061054a565b600091505061054a565b611f90838361180a565b611f9d6000848484612127565b6107a95760405162461bcd60e51b815260206004820152603260248201527f4552433732313a207472616e7366657220746f206e6f6e20455243373231526560448201527131b2b4bb32b91034b6b83632b6b2b73a32b960711b6064820152608401610657565b600082600001828154811061202957634e487b7160e01b600052603260045260246000fd5b9060005260206000200154905092915050565b6060833b6120b25760405162461bcd60e51b815260206004820152602660248201527f416464726573733a2064656c65676174652063616c6c20746f206e6f6e2d636f60448201527f6e747261637400000000000000000000000000000000000000000000000000006064820152608401610657565b600080856001600160a01b0316856040516120cd9190612bb4565b600060405180830381855af49150503d8060008114612108576040519150601f19603f3d011682016040523d82523d6000602084013e61210d565b606091505b509150915061211d82828661254c565b9695505050505050565b60006001600160a01b0384163b1561227457604051630a85bd0160e11b81526001600160a01b0385169063150b7a029061216b903390899088908890600401612c80565b602060405180830381600087803b15801561218557600080fd5b505af19250505080156121b5575060408051601f3d908101601f191682019092526121b291810190612b37565b60015b61225a573d8080156121e3576040519150601f19603f3d011682016040523d82523d6000602084013e6121e8565b606091505b5080516122525760405162461bcd60e51b815260206004820152603260248201527f4552433732313a207472616e7366657220746f206e6f6e20455243373231526560448201527131b2b4bb32b91034b6b83632b6b2b73a32b960711b6064820152608401610657565b805181602001fd5b6001600160e01b031916630a85bd0160e11b149050611424565b506001949350505050565b60006001600160e01b031982167f5a05180f00000000000000000000000000000000000000000000000000000000148061054a575061054a82612585565b6122c88383836125ec565b600c5460ff16156107a95760405162461bcd60e51b815260206004820152602b60248201527f4552433732315061757361626c653a20746f6b656e207472616e73666572207760448201527f68696c65207061757365640000000000000000000000000000000000000000006064820152608401610657565b60606000612350836002612dc0565b61235b906002612d94565b67ffffffffffffffff81111561238157634e487b7160e01b600052604160045260246000fd5b6040519080825280601f01601f1916602001820160405280156123ab576020820181803683370190505b509050600360fc1b816000815181106123d457634e487b7160e01b600052603260045260246000fd5b60200101906001600160f81b031916908160001a9053507f78000000000000000000000000000000000000000000000000000000000000008160018151811061242d57634e487b7160e01b600052603260045260246000fd5b60200101906001600160f81b031916908160001a9053506000612451846002612dc0565b61245c906001612d94565b90505b60018111156124fd577f303132333435363738396162636465660000000000000000000000000000000085600f16601081106124ab57634e487b7160e01b600052603260045260246000fd5b1a60f81b8282815181106124cf57634e487b7160e01b600052603260045260246000fd5b60200101906001600160f81b031916908160001a90535060049490941c936124f681612e22565b905061245f565b508315610e195760405162461bcd60e51b815260206004820181905260248201527f537472696e67733a20686578206c656e67746820696e73756666696369656e746044820152606401610657565b6060831561255b575081610e19565b82511561256b5782518084602001fd5b8160405162461bcd60e51b81526004016106579190612d13565b60006001600160e01b031982167f7965db0b00000000000000000000000000000000000000000000000000000000148061054a57507f01ffc9a7000000000000000000000000000000000000000000000000000000006001600160e01b031983161461054a565b6001600160a01b0383166126475761264281600a80546000838152600b60205260408120829055600182018355919091527fc65a7bb8d6351c1cf70c95a316cc6a92839c986682d98bc35f958f4883f9d2a80155565b61266a565b816001600160a01b0316836001600160a01b03161461266a5761266a83826126a4565b6001600160a01b038216612681576107a981612741565b826001600160a01b0316826001600160a01b0316146107a9576107a9828261281a565b600060016126b184610cf1565b6126bb9190612ddf565b60008381526009602052604090205490915080821461270e576001600160a01b03841660009081526008602090815260408083208584528252808320548484528184208190558352600990915290208190555b5060009182526009602090815260408084208490556001600160a01b039094168352600881528383209183525290812055565b600a5460009061275390600190612ddf565b6000838152600b6020526040812054600a805493945090928490811061278957634e487b7160e01b600052603260045260246000fd5b9060005260206000200154905080600a83815481106127b857634e487b7160e01b600052603260045260246000fd5b6000918252602080832090910192909255828152600b9091526040808220849055858252812055600a8054806127fe57634e487b7160e01b600052603160045260246000fd5b6001900381819060005260206000200160009055905550505050565b600061282583610cf1565b6001600160a01b039093166000908152600860209081526040808320868452825280832085905593825260099052919091209190915550565b80356001600160a01b038116811461287557600080fd5b919050565b80356001600160801b038116811461287557600080fd5b6000602082840312156128a2578081fd5b610e198261285e565b600080604083850312156128bd578081fd5b6128c68361285e565b91506128d46020840161285e565b90509250929050565b6000806000606084860312156128f1578081fd5b6128fa8461285e565b92506129086020850161285e565b9150604084013590509250925092565b6000806000806080858703121561292d578081fd5b6129368561285e565b93506129446020860161285e565b925060408501359150606085013567ffffffffffffffff80821115612967578283fd5b818701915087601f83011261297a578283fd5b81358181111561298c5761298c612ecf565b604051601f8201601f19908116603f011681019083821181831017156129b4576129b4612ecf565b816040528281528a60208487010111156129cc578586fd5b82602086016020830137918201602001949094529598949750929550505050565b600080604083850312156129ff578182fd5b612a088361285e565b915060208301358015158114612a1c578182fd5b809150509250929050565b60008060408385031215612a39578182fd5b612a428361285e565b946020939093013593505050565b60008060208385031215612a62578182fd5b823567ffffffffffffffff80821115612a79578384fd5b818501915085601f830112612a8c578384fd5b813581811115612a9a578485fd5b8660208260051b8501011115612aae578485fd5b60209290920196919550909350505050565b600060208284031215612ad1578081fd5b5035919050565b60008060408385031215612aea578182fd5b823591506128d46020840161285e565b60008060408385031215612b0c578182fd5b50508035926020909101359150565b600060208284031215612b2c578081fd5b8135610e1981612ee5565b600060208284031215612b48578081fd5b8151610e1981612ee5565b600060208284031215612b64578081fd5b610e198261287a565b60008060408385031215612b7f578182fd5b6128c68361287a565b60008151808452612ba0816020860160208601612df6565b601f01601f19169290920160200192915050565b60008251612bc6818460208701612df6565b9190910192915050565b60008351612be2818460208801612df6565b835190830190612bf6818360208801612df6565b01949350505050565b7f416363657373436f6e74726f6c3a206163636f756e7420000000000000000000815260008351612c37816017850160208801612df6565b7f206973206d697373696e6720726f6c65200000000000000000000000000000006017918401918201528351612c74816028840160208801612df6565b01602801949350505050565b60006001600160a01b0380871683528086166020840152508360408301526080606083015261211d6080830184612b88565b6000602080830181845280855180835260408601915060408160051b8701019250838701855b82811015612d0657603f19888603018452612cf4858351612b88565b94509285019290850190600101612cd8565b5092979650505050505050565b602081526000610e196020830184612b88565b6000808335601e19843603018112612d3c578283fd5b83018035915067ffffffffffffffff821115612d56578283fd5b602001915036819003821315612d6b57600080fd5b9250929050565b60006001600160801b03808316818516808303821115612bf657612bf6612ea3565b60008219821115612da757612da7612ea3565b500190565b600082612dbb57612dbb612eb9565b500490565b6000816000190483118215151615612dda57612dda612ea3565b500290565b600082821015612df157612df1612ea3565b500390565b60005b83811015612e11578181015183820152602001612df9565b838111156111575750506000910152565b600081612e3157612e31612ea3565b506000190190565b600181811c90821680612e4d57607f821691505b60208210811415612e6e57634e487b7160e01b600052602260045260246000fd5b50919050565b6000600019821415612e8857612e88612ea3565b5060010190565b600082612e9e57612e9e612eb9565b500690565b634e487b7160e01b600052601160045260246000fd5b634e487b7160e01b600052601260045260246000fd5b634e487b7160e01b600052604160045260246000fd5b6001600160e01b031981168114610af557600080fdfe416464726573733a206c6f772d6c6576656c2064656c65676174652063616c6c206661696c6564a264697066735822122067f934f155f5909d034ce05c526163d4bd15f5dc06e3b2000dbaf514eb9a2da964736f6c63430008040033",
  "linkReferences": {},
  "deployedLinkReferences": {}
}