{
  "contracts/registry.sol": {
    "Registry": {
      "abi": [
        {
          "anonymous": false,
          "inputs": [
            {
              "indexed": false,
              "internalType": "address",
              "name": "owner",
              "type": "address"
            },
            {
              "indexed": false,
              "internalType": "address",
              "name": "contract_",
              "type": "address"
            }
          ],
          "name": "Registration",
          "type": "event"
        },
        {
          "inputs": [
            {
              "internalType": "address",
              "name": "team",
              "type": "address"
            }
          ],
          "name": "getContract",
          "outputs": [
            {
              "internalType": "address",
              "name": "",
              "type": "address"
            }
          ],
          "stateMutability": "view",
          "type": "function"
        },
        {
          "inputs": [
            {
              "internalType": "address",
              "name": "a",
              "type": "address"
            }
          ],
          "name": "register",
          "outputs": [],
          "stateMutability": "nonpayable",
          "type": "function"
        }
      ],
      "devdoc": {
        "kind": "dev",
        "methods": {},
        "version": 1
      },
      "evm": {
        "bytecode": {
          "linkReferences": {},
          "object": "608060405234801561001057600080fd5b506101ac806100206000396000f3fe608060405234801561001057600080fd5b50600436106100365760003560e01c80630ad1c2fa1461003b5780634420e4861461009d575b600080fd5b61007461004936600461013b565b73ffffffffffffffffffffffffffffffffffffffff9081166000908152602081905260409020541690565b60405173ffffffffffffffffffffffffffffffffffffffff909116815260200160405180910390f35b6100b06100ab36600461013b565b6100b2565b005b336000818152602081815260409182902080547fffffffffffffffffffffffff00000000000000000000000000000000000000001673ffffffffffffffffffffffffffffffffffffffff86169081179091558251938452908301527f2a4f530ae55f002aac4686b649762fc68e96bd8b80ac835b41777145c94e1f8a910160405180910390a150565b60006020828403121561014c578081fd5b813573ffffffffffffffffffffffffffffffffffffffff8116811461016f578182fd5b939250505056fea2646970667358221220af3e34daf8e3c362650cec398f5f1cf4980fe153d3118de0c0d8ddd0542e045564736f6c63430008040033",
          "opcodes": "PUSH1 0x80 PUSH1 0x40 MSTORE CALLVALUE DUP1 ISZERO PUSH2 0x10 JUMPI PUSH1 0x0 DUP1 REVERT JUMPDEST POP PUSH2 0x1AC DUP1 PUSH2 0x20 PUSH1 0x0 CODECOPY PUSH1 0x0 RETURN INVALID PUSH1 0x80 PUSH1 0x40 MSTORE CALLVALUE DUP1 ISZERO PUSH2 0x10 JUMPI PUSH1 0x0 DUP1 REVERT JUMPDEST POP PUSH1 0x4 CALLDATASIZE LT PUSH2 0x36 JUMPI PUSH1 0x0 CALLDATALOAD PUSH1 0xE0 SHR DUP1 PUSH4 0xAD1C2FA EQ PUSH2 0x3B JUMPI DUP1 PUSH4 0x4420E486 EQ PUSH2 0x9D JUMPI JUMPDEST PUSH1 0x0 DUP1 REVERT JUMPDEST PUSH2 0x74 PUSH2 0x49 CALLDATASIZE PUSH1 0x4 PUSH2 0x13B JUMP JUMPDEST PUSH20 0xFFFFFFFFFFFFFFFFFFFFFFFFFFFFFFFFFFFFFFFF SWAP1 DUP2 AND PUSH1 0x0 SWAP1 DUP2 MSTORE PUSH1 0x20 DUP2 SWAP1 MSTORE PUSH1 0x40 SWAP1 KECCAK256 SLOAD AND SWAP1 JUMP JUMPDEST PUSH1 0x40 MLOAD PUSH20 0xFFFFFFFFFFFFFFFFFFFFFFFFFFFFFFFFFFFFFFFF SWAP1 SWAP2 AND DUP2 MSTORE PUSH1 0x20 ADD PUSH1 0x40 MLOAD DUP1 SWAP2 SUB SWAP1 RETURN JUMPDEST PUSH2 0xB0 PUSH2 0xAB CALLDATASIZE PUSH1 0x4 PUSH2 0x13B JUMP JUMPDEST PUSH2 0xB2 JUMP JUMPDEST STOP JUMPDEST CALLER PUSH1 0x0 DUP2 DUP2 MSTORE PUSH1 0x20 DUP2 DUP2 MSTORE PUSH1 0x40 SWAP2 DUP3 SWAP1 KECCAK256 DUP1 SLOAD PUSH32 0xFFFFFFFFFFFFFFFFFFFFFFFF0000000000000000000000000000000000000000 AND PUSH20 0xFFFFFFFFFFFFFFFFFFFFFFFFFFFFFFFFFFFFFFFF DUP7 AND SWAP1 DUP2 OR SWAP1 SWAP2 SSTORE DUP3 MLOAD SWAP4 DUP5 MSTORE SWAP1 DUP4 ADD MSTORE PUSH32 0x2A4F530AE55F002AAC4686B649762FC68E96BD8B80AC835B41777145C94E1F8A SWAP2 ADD PUSH1 0x40 MLOAD DUP1 SWAP2 SUB SWAP1 LOG1 POP JUMP JUMPDEST PUSH1 0x0 PUSH1 0x20 DUP3 DUP5 SUB SLT ISZERO PUSH2 0x14C JUMPI DUP1 DUP2 REVERT JUMPDEST DUP2 CALLDATALOAD PUSH20 0xFFFFFFFFFFFFFFFFFFFFFFFFFFFFFFFFFFFFFFFF DUP2 AND DUP2 EQ PUSH2 0x16F JUMPI DUP2 DUP3 REVERT JUMPDEST SWAP4 SWAP3 POP POP POP JUMP INVALID LOG2 PUSH5 0x6970667358 0x22 SLT KECCAK256 0xAF RETURNDATACOPY CALLVALUE 0xDA 0xF8 0xE3 0xC3 PUSH3 0x650CEC CODECOPY DUP16 0x5F SHR DELEGATECALL SWAP9 0xF 0xE1 MSTORE8 0xD3 GT DUP14 0xE0 0xC0 0xD8 0xDD 0xD0 SLOAD 0x2E DIV SSTORE PUSH5 0x736F6C6343 STOP ADDMOD DIV STOP CALLER "
        },
        "gasEstimates": {
          "creation": {
            "codeDepositCost": "85600",
            "executionCost": "135",
            "totalCost": "85735"
          },
          "external": {
            "getContract(address)": "1165",
            "register(address)": "22495"
          }
        },
        "methodIdentifiers": {
          "getContract(address)": "0ad1c2fa",
          "register(address)": "4420e486"
        }
      },
      "storageLayout": {
        "storage": [
          {
            "astId": 5,
            "contract": "contracts/registry.sol:Registry",
            "label": "current_addrs",
            "offset": 0,
            "slot": "0",
            "type": "t_mapping(t_address,t_address)"
          }
        ],
        "types": {
          "t_address": {
            "encoding": "inplace",
            "label": "address",
            "numberOfBytes": "20"
          },
          "t_mapping(t_address,t_address)": {
            "encoding": "mapping",
            "key": "t_address",
            "label": "mapping(address => address)",
            "numberOfBytes": "32",
            "value": "t_address"
          }
        }
      },
      "userdoc": {
        "kind": "user",
        "methods": {},
        "version": 1
      }
    }
  }
}