{
  "_format": "hh-sol-artifact-1",
  "contractName": "Registry",
  "sourceName": "contracts/registry.sol",
  "abi": [
    {
      "anonymous": false,
      "inputs": [
        {
          "indexed": false,
          "internalType": "address",
          "name": "owner",
          "type": "address"
        },
        {
          "indexed": false,
          "internalType": "address",
          "name": "contract_",
          "type": "address"
        }
      ],
      "name": "Registration",
      "type": "event"
    },
    {
      "inputs": [
        {
          "internalType": "address",
          "name": "team",
          "type": "address"
        }
      ],
      "name": "getContract",
      "outputs": [
        {
          "internalType": "address",
          "name": "",
          "type": "address"
        }
      ],
      "stateMutability": "view",
      "type": "function"
    },
    {
      "inputs": [
        {
          "internalType": "address",
          "name": "a",
          "type": "address"
        }
      ],
      "name": "register",
      "outputs": [],
      "stateMutability": "nonpayable",
      "type": "function"
    }
  ],
  "bytecode": "0x608060405234801561001057600080fd5b506101ac806100206000396000f3fe608060405234801561001057600080fd5b50600436106100365760003560e01c80630ad1c2fa1461003b5780634420e4861461009d575b600080fd5b61007461004936600461013b565b73ffffffffffffffffffffffffffffffffffffffff9081166000908152602081905260409020541690565b60405173ffffffffffffffffffffffffffffffffffffffff909116815260200160405180910390f35b6100b06100ab36600461013b565b6100b2565b005b336000818152602081815260409182902080547fffffffffffffffffffffffff00000000000000000000000000000000000000001673ffffffffffffffffffffffffffffffffffffffff86169081179091558251938452908301527f2a4f530ae55f002aac4686b649762fc68e96bd8b80ac835b41777145c94e1f8a910160405180910390a150565b60006020828403121561014c578081fd5b813573ffffffffffffffffffffffffffffffffffffffff8116811461016f578182fd5b939250505056fea2646970667358221220af3e34daf8e3c362650cec398f5f1cf4980fe153d3118de0c0d8ddd0542e045564736f6c63430008040033",
  "linkReferences": {},
  "deployedLinkReferences": {}
}